:100000000C945C000C9479000C9479000C947900A9
:100010000C9479000C9479000C9479000C9479007C
:100020000C9479000C9479000C9479000C9479006C
:100030000C9479000C9479000C9479000C9479005C
:100040000C942E040C9479000C9479000C94790093
:100050000C9479000C9479000C9479000C9479003C
:100060000C9479000C947900000000070002010054
:100070000003040600000000000000000102040864
:100080001020408001020408102001020408102002
:10009000040404040404040402020202020203032E
:1000A0000303030300000000250028002B000000CC
:1000B0000000240027002A0011241FBECFEFD8E043
:1000C000DEBFCDBF11E0A0E0B1E0EEE5FFE002C091
:1000D00005900D92A631B107D9F721E0A6E1B1E074
:1000E00001C01D92A332B207E1F70E9487020C946F
:1000F00025060C940000AF92BF92CF92DF92EF9250
:10010000FF920F931F93CF93DF93CDB7DEB7C35EFC
:10011000D1400FB6F894DEBF0FBECDBFCE01815FD8
:100120009E4F0E94630343E067E570E0CE01815F6C
:100130009E4F0E94640341E469E570E0CE01815F57
:100140009E4F0E94640347E065E570E0CE01815F49
:100150009E4F0E9464038FE8E82EFF24F394EC0E78
:10016000FD1E8EE1E80EF11C8E0101571E4FC801E5
:100170000E9409040B5F1F4F0E151F05C1F7CE012A
:1001800081579E4F7C0102E010E061E0802F0E94C9
:100190001802B801CE0101960E94F703B80162501F
:1001A0007109C7010E940C0449815A816B81C70102
:1001B0000E9410040F5F1F4F95E0E90EF11C0830FC
:1001C000110519F76AE070E0CE018F519E4F0E9431
:1001D000F703CF51DE4F488159816A81C15ED1401A
:1001E000CE0182529E4F0E9417045E0181E3A81A3D
:1001F0008EEFB80A41E050E065E570E0C5010E946D
:10020000EC037E0197E3E91A9EEFF90A41E050E022
:1002100067E570E0C7010E94EC038E010D531E4F8D
:1002200041E050E069E570E0C8010E94EC036E0116
:1002300083E4C81A8EEFD80A40E050E060E87FE31C
:10024000C6010E947703C355DE4F19830883CD5A38
:10025000D140C155DE4FF982E882CF5AD140CF5408
:10026000DE4FB982A882C15BD140CD54DE4FF98206
:10027000E882C35BD140CB54DE4F19830883C55B52
:10028000D140C954DE4F19830883C75BD140C7549E
:10029000DE4F19830883C95BD140C554DE4FD98234
:1002A000C882CB5BD14048E050E0BE0163557E4F31
:1002B000CE0186529E4F0E948203C252DE4F288199
:1002C00039814A81CE5DD140BE0161577E4FCE015A
:1002D0008B529E4F0E9497028DB79EB7805891090E
:1002E0000FB6F8949EBF0FBE8DBFADB7BEB71196C7
:1002F00080E8FE01E15FFE4F01900D928A95E1F7E3
:10030000CB52DE4F2881C55DD140CA52DE4F3881C5
:10031000C65DD140C952DE4F4881C75DD140C85249
:10032000DE4F5881C85DD140C752DE4F6881C95D3C
:10033000D140CE0186579F4F0E94C3020FB6F8945A
:10034000DEBF0FBECDBFC352DE4F8881CD5DD14031
:100350008F93C452DE4F8881CC5DD1408F93C552BC
:10036000DE4F8881CB5DD1408F93C652DE4F8881AE
:10037000CA5DD1408F938DB79EB7855891090FB64E
:10038000F8949EBF0FBE8DBFADB7BEB7119685E87E
:10039000FE01E657FF4F01900D928A95E1F7CE01DD
:1003A00001960E9425030FB6F894DEBF0FBECDBFA5
:1003B000CE0101960E946203CD51DE4F0FB6F89434
:1003C000DEBF0FBECDBFDF91CF911F910F91FF9088
:1003D000EF90DF90CF90BF90AF9008950895833055
:1003E00081F028F4813099F08230A1F008958630B0
:1003F000A9F08730B9F08430D1F4809180008F7DEE
:1004000003C0809180008F7780938000089584B529
:100410008F7702C084B58F7D84BD08958091B00030
:100420008F7703C08091B0008F7D8093B0000895D6
:10043000CF93DF9390E0FC01E458FF4F2491FC013F
:10044000E057FF4F8491882349F190E0880F991F6E
:10045000FC01E255FF4FA591B4918C559F4FFC01D3
:10046000C591D4919FB7611108C0F8948C912095E3
:1004700082238C93888182230AC0623051F4F894DD
:100480008C91322F309583238C938881822B8883A3
:1004900004C0F8948C91822B8C939FBFDF91CF91F5
:1004A00008950F931F93CF93DF931F92CDB7DEB7BD
:1004B000282F30E0F901E859FF4F8491F901E45801
:1004C000FF4F1491F901E057FF4F04910023C9F049
:1004D000882321F069830E94EF016981E02FF0E019
:1004E000EE0FFF1FEC55FF4FA591B4919FB7F89405
:1004F0008C91611103C01095812301C0812B8C93D5
:100500009FBF0F90DF91CF911F910F9108950E948F
:10051000C1040E947B00C0E0D0E00E94EE01209761
:10052000E1F30E940000F9CF02960C941504CF92DB
:10053000DF92EF92CF93DF93EC016901E42E0296F4
:100540000E94150480E090E00E94FC049983888357
:10055000CA82DB82EC82DF91CF91EF90DF90CF9067
:100560000895089502960C942A0402960C942C0483
:10057000CF93DF93EC010E949402CE010596DF91A8
:10058000CF910C946303EF92FF920F931F93CF933D
:10059000DF9300D000D01F92CDB7DEB78C01298346
:1005A0003A834B835C836D830E949402780185E0DB
:1005B000E80EF11CC7010E94630385E0FE0131963D
:1005C000D80101900D928A95E1F780E8FE013E96F0
:1005D000D70101900D928A95E1F70F900F900F903F
:1005E0000F900F90DF91CF911F910F91FF90EF909F
:1005F00008950F931F93CF93DF9300D000D0CDB712
:10060000DEB78C01059629833A834B835C830E9475
:100610006903682FC8010E94B102C8010E94B2029A
:1006200029813A814B815C81CA01B9010E949006FF
:100630000E949B04C8010F900F900F900F90DF91C4
:10064000CF911F910F910C94B502EF92FF920F93EF
:100650001F93CF93DF9300D000D0CDB7DEB78C01CE
:10066000CE56DF4F88819981AA81BB81C259D04083
:1006700089839A83AB83BC83C8010E94B802780146
:1006800095E8E90EF11CC7010E94810385E8FE018F
:100690003D96D80101900D928A95E1F789819A8162
:1006A000AB81BC81F70180839183A283B3830F90D8
:1006B0000F900F900F90DF91CF911F910F91FF90AE
:1006C000EF90089508950895680F791FFB01408306
:1006D0000895680F791FFB0180810895CF93DF9300
:1006E000CDB7DEB7DF91CF91089581E008952AE07C
:1006F00031E0FC013183208342835383648375831B
:1007000008950895EF92FF920F931F93CF93DF9375
:100710007A01EE0CFF1CFB0120E030E02E153F05B6
:100720007CF4619171918901000F111FEC01A88186
:10073000B981A00FB11F6D937C932F5F3F4FEECF18
:10074000FC0153834283DF91CF911F910F91FF9062
:10075000EF90089580E00895CF92DF92EF92FF929C
:100760000F931F93CF93DF93CDB7DEB78C01C057A4
:10077000DF4F68817981C059D040882777FD809507
:10078000982F0E94BE0620E030E040E752E40E942D
:1007900028066B017C01F80164817581882777FD4B
:1007A0008095982F0E94BE069B01AC01C701B6013F
:1007B0000E944A079B01AC01F80162817381CE015E
:1007C0000B960E94F902DF91CF911F910F91FF903C
:1007D000EF90DF90CF900895FC0182E191E091834A
:1007E0008083738362835583448308950895FC0155
:1007F000718360831282089521E0FC01228361E00D
:1008000080810C945102FC01128260E080810C9482
:10081000510202960C94F603FC01718360830895E3
:10082000FC0142835383648308950C94F603CF92B2
:10083000DF92EF92CF93DF93EC016A01E62E0E94E4
:10084000F603C882D982EA82DF91CF91EF90DF90E0
:10085000CF9008950C9403040C94FC031F920F9204
:100860000FB60F9211242F933F938F939F93AF93C3
:10087000BF938091170190911801A0911901B09137
:100880001A013091160123E0230F2D3720F4019631
:10089000A11DB11D05C026E8230F0296A11DB11DA3
:1008A000209316018093170190931801A0931901CA
:1008B000B0931A0180911B0190911C01A0911D0120
:1008C000B0911E010196A11DB11D80931B01909353
:1008D0001C01A0931D01B0931E01BF91AF919F9188
:1008E0008F913F912F910F900FBE0F901F901895F1
:1008F0003FB7F89480911B0190911C01A0911D01BC
:10090000B0911E0126B5A89B05C02F3F19F0019696
:10091000A11DB11D3FBF6627782F892F9A2F620F27
:10092000711D811D911D42E0660F771F881F991F61
:100930004A95D1F70895CF92DF92EF92FF92CF932D
:10094000DF936B017C010E947804EB01C114D10498
:10095000E104F10479F00E9478046C1B7D0B683E81
:100960007340A0F381E0C81AD108E108F108C8512A
:10097000DC4FECCFDF91CF91FF90EF90DF90CF90E5
:100980000895789484B5826084BD84B5816084BD07
:1009900085B5826085BD85B5816085BDEEE6F0E0F8
:1009A000808181608083E1E8F0E010828081826054
:1009B0008083808181608083E0E8F0E080818160D5
:1009C0008083E1EBF0E0808184608083E0EBF0E005
:1009D000808181608083EAE7F0E0808184608083A9
:1009E0008081826080838081816080838081806853
:1009F00080831092C10008950C94FE04CF93DF937E
:100A00008230910510F482E090E0E0912101F091B4
:100A1000220120E030E0A0E0B0E0309739F14081E1
:100A2000518148175907B8F04817590771F4828166
:100A30009381109729F013969C938E9312972CC054
:100A4000909322018093210127C02115310531F0B7
:100A50004217530718F0A901DB0101C0EF019A0109
:100A6000BD01DF010280F381E02DD7CF21153105D3
:100A7000F9F0281B390B2430310580F48A819B81E1
:100A80006115710521F0FB019383828304C090936B
:100A9000220180932101FE01329644C0FE01E20F43
:100AA000F31F8193919322503109398328833AC0EF
:100AB00020911F0130912001232B41F4209102014C
:100AC000309103013093200120931F0120910001F8
:100AD000309101012115310541F42DB73EB7409108
:100AE000040150910501241B350BE0911F01F09189
:100AF0002001E217F307A0F42E1B3F0B281739073C
:100B000078F0AC014E5F5F4F2417350748F04E0F69
:100B10005F1F5093200140931F018193919302C066
:100B2000E0E0F0E0CF01DF91CF910895CF93DF9324
:100B3000009709F487C0FC01329713821282C0919A
:100B40002101D0912201209781F420813181280F49
:100B5000391F80911F01909120018217930779F529
:100B6000F0932001E0931F016DC0DE0120E030E032
:100B7000AE17BF0750F412964D915C9113979D01EB
:100B80004115510509F1DA01F3CFB383A283408106
:100B90005181840F951F8A179B0771F48D919C9149
:100BA0001197840F951F02969183808312968D91E1
:100BB0009C911397938382832115310529F4F09337
:100BC0002201E09321013EC0D9011396FC93EE93DC
:100BD00012974D915D91A40FB51FEA17FB0779F4A9
:100BE00080819181840F951F0296D90111969C9363
:100BF0008E938281938113969C938E931297E0E05B
:100C0000F0E08A819B81009719F0FE01EC01F9CF99
:100C1000CE01029628813981820F931F20911F01F6
:100C2000309120012817390769F4309729F4109280
:100C300022011092210102C013821282D09320015E
:100C4000C0931F01DF91CF910895F8940C94AD07E4
:100C50000CD0E6C0DED040F0D5D030F021F45F3FBC
:100C600019F0C7C0511110C1CAC0EBD098F3992335
:100C7000C9F35523B1F3951B550BBB27AA27621760
:100C80007307840738F09F5F5F4F220F331F441FA5
:100C9000AA1FA9F333D00E2E3AF0E0E830D09150DD
:100CA0005040E695001CCAF729D0FE2F27D0660FCA
:100CB000771F881FBB1F261737074807AB07B0E809
:100CC00009F0BB0B802DBF01FF2793585F4F2AF01F
:100CD0009E3F510568F08DC0D7C05F3FECF3983E52
:100CE000DCF3869577956795B795F7959F5FC9F77C
:100CF000880F911D9695879597F90895E1E0660F05
:100D0000771F881FBB1F621773078407BA0720F07D
:100D1000621B730B840BBA0BEE1F88F7E0950895E6
:100D200098D088F09F5790F0B92F9927B751A0F02D
:100D3000D1F0660F771F881F991F1AF0BA95C9F76F
:100D400012C0B13081F09FD0B1E008959CC0672FF0
:100D5000782F8827B85F39F0B93FCCF3869577951F
:100D60006795B395D9F73EF4909580957095619508
:100D70007F4F8F4F9F4F0895E89409C097FB3EF433
:100D800090958095709561957F4F8F4F9F4F9923D8
:100D9000A9F0F92F96E9BB279395F6958795779556
:100DA0006795B795F111F8CFFAF4BB0F11F460FF16
:100DB0001BC06F5F7F4F8F4F9F4F16C0882311F06E
:100DC00096E911C0772321F09EE8872F762F05C082
:100DD000662371F096E8862F70E060E02AF09A951D
:100DE000660F771F881FDAF7880F9695879597F912
:100DF000089597F99F6780E870E060E008959FEF9D
:100E000080EC089500240A941616170618060906A1
:100E1000089500240A941216130614060506089570
:100E2000092E0394000C11F4882352F0BB0F40F4F8
:100E3000BF2B11F460FF04C06F5F7F4F8F4F9F4F38
:100E4000089557FD9058440F551F59F05F3F71F0BA
:100E50004795880F97FB991F61F09F3F79F0879521
:100E60000895121613061406551FF2CF4695F1DFAA
:100E700008C0161617061806991FF1CF869571053A
:100E8000610508940895E894BB2766277727CB016E
:100E900097F908950BD0C4CFB5DF28F0BADF18F06A
:100EA000952309F0A6CFABCF1124EECFCADFA0F374
:100EB000959FD1F3950F50E0551F629FF001729FEF
:100EC000BB27F00DB11D639FAA27F00DB11DAA1F0E
:100ED000649F6627B00DA11D661F829F2227B00D5B
:100EE000A11D621F739FB00DA11D621F839FA00DE6
:100EF000611D221F749F3327A00D611D231F849F36
:100F0000600D211D822F762F6A2F11249F5750408C
:100F10008AF0E1F088234AF0EE0FFF1FBB1F661F27
:100F2000771F881F91505040A9F79E3F510570F0E0
:100F300060CFAACF5F3FECF3983EDCF386957795C0
:100F40006795B795F795E7959F5FC1F7FE2B880FDB
:0E0F5000911D9695879597F90895F894FFCF17
:100F5E00000023018000000000006E0375030000F6
:060F6E000000AC03AA0321
:00000001FF
