:100000000C945A000C9482000C9482000C94820090
:100010000C9482000C9482000C9482000C94820058
:100020000C9482000C9482000C9482000C94820048
:100030000C9482000C9482000C9482000C94820038
:100040000C94AA000C9482000C9417020C945A028F
:100050000C9482000C9482000C9482000C94820018
:100060000C9452050C94820000000007000201006D
:100070000003040600000000000000000102040864
:100080001020408001020408102001020408102002
:10009000040404040404040402020202020203032E
:1000A0000303030300000000250028002B00A60026
:1000B0001603070511241FBECFEFD8E0DEBFCDBF6A
:1000C00011E0A0E0B1E0E6E1FEE002C005900D9293
:1000D000A032B107D9F722E0A0E2B1E001C01D9241
:1000E000A439B207E1F710E0C4EBD0E004C02297D6
:1000F000FE010E940507CE3AD107C9F70E94780198
:100100000C94DE060C94000040E052EC61E070E0DC
:100110008BE291E00E94950268EE73E080E090E04F
:100120000C94170180E291E00E946E0368EE73E088
:1001300080E090E00E94170180E291E00E9470034D
:1001400068EE73E080E090E00C94170180E291E0AB
:100150000C946C031F920F920FB60F9211242F93E1
:100160003F938F939F93AF93BF938091230190917F
:100170002401A0912501B09126013091220123E0B4
:10018000230F2D3720F40196A11DB11D05C026E8CF
:10019000230F0296A11DB11D2093220180932301FC
:1001A00090932401A0932501B0932601809127010B
:1001B00090912801A0912901B0912A010196A11DD9
:1001C000B11D8093270190932801A0932901B0933A
:1001D0002A01BF91AF919F918F913F912F910F90E5
:1001E0000FBE0F901F9018953FB7F894809127018C
:1001F00090912801A0912901B0912A0126B5A89BD0
:1002000005C02F3F19F00196A11DB11D3FBF662704
:10021000782F892F9A2F620F711D811D911D42E049
:10022000660F771F881F991F4A95D1F70895CF92BF
:10023000DF92EF92FF92CF93DF936B017C010E94DC
:10024000F400EB01C114D104E104F10479F00E943F
:10025000F4006C1B7D0B683E7340A0F381E0C81A6C
:10026000D108E108F108C851DC4FECCFDF91CF9104
:10027000FF90EF90DF90CF900895789484B58260DE
:1002800084BD84B5816084BD85B5826085BD85B53A
:10029000816085BDEEE6F0E0808181608083E1E8E9
:1002A000F0E0108280818260808380818160808321
:1002B000E0E8F0E0808181608083E1EBF0E0808124
:1002C00084608083E0EBF0E0808181608083EAE7F6
:1002D000F0E080818460808380818260808380817F
:1002E000816080838081806880831092C10008953E
:1002F0000E943D010E948400C1E5D2E00E9492006C
:100300002097E1F30E945102F9CFFC012485358545
:10031000F901E05CFF4F808191813296208131812B
:10032000821B930B8F7399270895FC018485958513
:10033000FC01E05CFF4F4081518132962081318188
:100340004217530741F00190F081E02DE80FF91FAB
:10035000808190E008958FEF9FEF0895FC018485E0
:100360009585FC01E05CFF4F4081518132962081F0
:1003700031814217530779F0A081B181A80FB91FCD
:100380008C91208131812F5F3F4F2F733327318331
:10039000208390E008958FEF9FEF0895FC0181A1E5
:1003A000882329F0A489B5898C9186FFFBCF11A2FF
:1003B0000895CF93DF93FC0126853785D901A05C92
:1003C000BF4F8D919C91119701968F739927E901E9
:1003D000CE5BDF4F4881598184179507D9F30D9083
:1003E000BC91A02DA20FB31F6C93A685B785A05C0E
:1003F000BF4F11969C938E93A689B7892C9181E06B
:1004000090E0078C02C0880F991F0A94E2F7282B0E
:100410002C9381E081A30488F589E02D808180649C
:10042000808381E090E0DF91CF91089508951F923D
:100430000F920FB60F9211242F933F934F938F93E8
:100440009F93EF93FF938091C00082FD1CC0409169
:10045000C6008091D1019091D20101968F739927A6
:100460002091D3013091D4018217930771F0E0916C
:10047000D101F091D201EF56FE4F40839093D2010B
:100480008093D10102C08091C600FF91EF919F91AE
:100490008F914F913F912F910F900FBE0F901F9012
:1004A00018958BE291E00E948501892B11F00C9444
:1004B000160208951F920F920FB60F9211242F93D8
:1004C0003F938F939F93EF93FF9320918D013091F2
:1004D0008E0180918F01909190012817390731F496
:1004E0008091C1008F7D8093C10014C0E0918F0185
:1004F000F0919001E35BFE4F208180918F019091FC
:10050000900101968F7399279093900180938F01AA
:100510002093C600FF91EF919F918F913F912F9172
:100520000F900FBE0F901F901895CF92DF92EF9211
:10053000FF92CF93DF93EC016A017B01411581EEBD
:10054000580761057105F9F0EC89FD8981E090E0BB
:1005500008A002C0880F991F0A94E2F7808360E028
:1005600079E08DE390E0A70196010E94E106215019
:100570003109410951095695479537952795211518
:1005800080E1380798F0EC89FD89108260E874E812
:100590008EE190E0A70196010E94E1062150310909
:1005A000410951095695479537952795E889F98965
:1005B0003083EA89FB89208319A2EE89FF89408173
:1005C00081E090E09C010C8C02C0220F331F0A9442
:1005D000E2F7422B4083EE89FF8940819C010D8C1C
:1005E00002C0220F331F0A94E2F7422B4083EE89A8
:1005F000FF8940819C010E8C02C0220F331F0A9498
:10060000E2F7422B4083EE89FF8920810F8C02C0E4
:10061000880F991F0A94E2F7809582238083DF91E7
:10062000CF91FF90EF90DF90CF90089510922E0120
:1006300010922D0188EE93E0A0E0B0E080932F01AE
:1006400090933001A0933101B093320184E091E0A6
:1006500090932C0180932B0181E991E090933801D4
:10066000809337018DE491E090933A0180933901B2
:1006700085EC90E090933C0180933B0184EC90E00A
:1006800090933E0180933D0180EC90E09093400177
:1006900080933F0181EC90E090934201809341016F
:1006A00082EC90E0909344018093430186EC90E0CB
:1006B000909346018093450184E08093470183E055
:1006C0008093480187E08093490185E080934A0147
:1006D00081E080934B0108950C9472030C9478038D
:1006E0000C94880322E0FC01208323E021830895F9
:1006F000CF93DF93EC0185ED91E00E94FD044AE089
:1007000050E068818BE291E0DF91CF910C944F042F
:100710004AE050E0FC0161818BE291E00C944F04CF
:10072000CF92DF92EF92FF920F931F93CF93DF93BD
:100730006C017A01EB01E60EF71E00E010E0CE1529
:10074000DF0561F06991D601ED91FC910190F08196
:10075000E02DC6010995080F191FF1CFC801DF91DF
:10076000CF911F910F91FF90EF90DF90CF90089560
:100770006115710581F0DB010D900020E9F7AD01F5
:1007800041505109461B570BDC01ED91FC91028051
:10079000F381E02D099480E090E00895DC01ED9173
:1007A000FC910190F081E02D09940F931F93CF935A
:1007B000DF93EC016DE00E94CE038C016AE0CE0174
:1007C0000E94CE03800F911FDF91CF911F910F9157
:1007D00008958F929F92AF92BF92CF92DF92EF9245
:1007E000FF920F931F93CF93DF93CDB7DEB7A197FF
:1007F0000FB6F894DEBF0FBECDBF7C01C42EE52F2F
:10080000CB01D22E19A221E02D1510F02AE0D22E14
:100810008E010F5D1F4F8D2C912CA12CB12C6C2DB6
:100820007E2FA50194010E94E1068C2DD29E801995
:100830001124015011098A3014F4805D01C0895CD3
:10084000F8018083211531054105510521F0C22EA3
:10085000E32FCA01E4CFB801C7010E94B803A196F3
:100860000FB6F894DEBF0FBECDBFDF91CF911F91C1
:100870000F91FF90EF90DF90CF90BF90AF909F903F
:100880008F9008952115310541F4DC01ED91FC9123
:100890000190F081E02D642F09940C94E9030F93EB
:1008A0001F93CF93DF93EC019A01462F50E060E055
:1008B00070E00E9442048C01CE010E94D503800F9B
:1008C000911FDF91CF911F910F91089580910402A4
:1008D00090E020910502821B910908952091050264
:1008E00080910402281750F4E22FF0E0EA5FFD4FF8
:1008F000808190E02F5F2093050208958FEF9FEF96
:100900000895E091050280910402E81730F4F0E0C8
:10091000EA5FFD4F808190E008958FEF9FEF08958B
:100920000895CF92DF92EF92FF920F931F93CF9390
:10093000DF937C01CB018A012091E101222389F020
:10094000EB016B01C40ED51ECC15DD0569F0699174
:10095000D701ED91FC910190F081E02DC70109953F
:10096000F3CF642F0E942905C801DF91CF911F9119
:100970000F91FF90EF90DF90CF900895CF93DF938A
:100980001F92CDB7DEB769832091E1012223D1F018
:100990002091E201203240F021E030E0FC0133837D
:1009A000228380E090E015C08091E301E82FF0E021
:1009B000EC51FE4F998190838F5F8093E301809388
:1009C000E20105C061E0CE0101960E94290581E0A7
:1009D00090E00F90DF91CF910895FC011382128275
:1009E00048EE53E060E070E044835583668377838C
:1009F00084E191E091838083089510920502109222
:100A000004021092E3011092E2010C940B0585EDB3
:100A100091E00C94ED041092930281E08093910296
:100A20001092900261E082E10E94A80661E083E1F9
:100A30000E94A806E9EBF0E080818E7F80838081B0
:100A40008D7F808388E48093B80085E48093BC0028
:100A50000895613298F420919302243089F46093D0
:100A60004802FC018AE492E0DC012A2F281B2617A9
:100A700018F421912D93F9CF80E0089581E0089535
:100A800082E0089585ED8093BC008091BC0084FDD8
:100A9000FCCF10929302089585EC8093BC001092D5
:100AA000930208951F920F920FB60F9211242F9365
:100AB0003F934F935F936F937F938F939F93AF93E6
:100AC000BF93EF93FF938091B900887F803609F43C
:100AD0009CC068F5883209F45BC090F4803109F459
:100AE00054C038F4882309F4F5C0883009F44DC0A7
:100AF000F5C0883109F44CC0803209F45DC0EEC005
:100B0000803409F468C048F4803309F455C0883350
:100B100009F0E4C080932602A8C0803509F44FC0D4
:100B2000883509F45DC0883409F0D8C0D5C088394B
:100B300009F4C6C0A8F4883709F467C038F48836C9
:100B400009F463C0803709F460C0C8C0883809F46C
:100B5000B7C0803909F45FC0803809F0BFC05BC0FE
:100B6000803B09F485C038F4803A09F466C0883ABD
:100B700009F47EC0B3C0803C09F4A6C0883C09F4E7
:100B8000A3C0883B09F489C0A9C08091920210C01B
:100B900090916B0280916A02981770F5E0916B0258
:100BA00081E08E0F80936B02F0E0E459FD4F80816D
:100BB0008093BB0085EC85C0809326028DC0E091B8
:100BC0006B0281E08E0F80936B028091BB00F0E09E
:100BD000E459FD4F808390916B0280916A026DC051
:100BE000E0916B0281E08E0F80936B028091BB00DD
:100BF000F0E0E459FD4F80838091910281116CC037
:100C000081E08093900284EA60C083E08093930245
:100C100010922702CFCF80912702803208F050C077
:100C2000E091270281E08E0F809327028091BB0024
:100C3000F0E0E85DFD4F8083BDCF809127028032D8
:100C400030F4E0912702F0E0E85DFD4F10820E9451
:100C500042056091270270E0E0918C02F0918D02D4
:100C600088E292E00995109227020E944C0536C056
:100C700084E0809393021092490210924802E0911E
:100C80008E02F0918F02099580914802811105C072
:100C900081E08093480210924A02E091490281E08B
:100CA0008E0F80934902F0E0E65BFD4F80818093D8
:100CB000BB009091490280914802981708F47ACFBE
:100CC00085E88093BC000AC085EC8093BC0010923C
:100CD000930204C0109226020E944205FF91EF91F8
:100CE000BF91AF919F918F917F916F915F914F9144
:100CF0003F912F910F900FBE0F901F90189583304A
:100D000081F028F4813099F08230A1F00895863086
:100D1000A9F08730B9F08430D1F4809180008F7DC4
:100D200003C0809180008F7780938000089584B500
:100D30008F7702C084B58F7D84BD08958091B00007
:100D40008F7703C08091B0008F7D8093B0000895AD
:100D50000F931F93CF93DF931F92CDB7DEB7282F4A
:100D600030E0F901E859FF4F8491F901E458FF4F51
:100D70001491F901E057FF4F04910023C9F0882333
:100D800021F069830E947F066981E02FF0E0EE0F79
:100D9000FF1FEC55FF4FA591B4919FB7F8948C912C
:100DA000611103C01095812301C0812B8C939FBFDB
:100DB0000F90DF91CF911F910F910895F8940C94AB
:100DC0000907A1E21A2EAA1BBB1BFD010DC0AA1F19
:100DD000BB1FEE1FFF1FA217B307E407F50720F0A4
:100DE000A21BB30BE40BF50B661F771F881F991F1F
:100DF0001A9469F760957095809590959B01AC0168
:100E0000BD01CF010895EE0FFF1F0590F491E02D75
:060E10000994F894FFCFE5
:100E160000000000D90190038501AE019501CE01C5
:100E260000000000BE04910466046E048104900470
:00000001FF
